:100000000C945D000C9485000C9485000C94850084
:100010000C9485000C9485000C9485000C9485004C
:100020000C9485000C9485000C9485000C9485003C
:100030000C9485000C9485000C9485000C9485002C
:100040000C9435030C9485000C943C020C9416021D
:100050000C9485000C9485000C9485000C9485000C
:100060000C9485000C9485000000000024002700FB
:100070002A0000000000250028002B0004040404CE
:100080000404040402020202020203030303030342
:10009000010204081020408001020408102001021F
:1000A00004081020000000080002010000030407FB
:1000B00000000000000000003D0B11241FBECFEF28
:1000C000D8E0DEBFCDBF11E0A0E0B1E0EEE2FCE1A0
:1000D00002C005900D92AA38B107D9F722E0AAE82C
:1000E000B1E001C01D92A03CB207E1F710E0CDE500
:1000F000D0E004C02197FE010E940A0ECC35D10742
:10010000C9F70E943D070C94150E0C940000CF9285
:10011000DF92EF92FF920F931F93CF93DF936C01C7
:100120007A018B01C0E0D0E0CE15DF0589F0D8015F
:100130006D918D01D601ED91FC910190F081E02D42
:10014000C6010995892B11F47E0102C02196ECCFDE
:10015000C701DF91CF911F910F91FF90EF90DF903A
:10016000CF900895FC01538D448D252F30E0842FCE
:1001700090E0821B930B541710F0CF9608950197CF
:100180000895FC01918D828D981761F0828DDF01B9
:10019000A80FB11D5D968C91928D9F5F9F73928F7A
:1001A00090E008958FEF9FEF0895FC01918D828D6F
:1001B000981731F0828DE80FF11D858D90E008953C
:1001C0008FEF9FEF0895FC01918D228D892F90E094
:1001D000805C9F4F821B91098F739927089581EA54
:1001E00091E00E94E30021E0892B09F420E0822FB6
:1001F0000895FC01848DDF01A80FB11DA35ABF4FE4
:100200002C91848D90E001968F739927848FA68915
:10021000B7892C93A089B1898C9180648C93938D3C
:10022000848D981306C00288F389E02D80818F7D2C
:1002300080830895EF92FF920F931F93CF93DF93E4
:10024000EC0181E0888F9B8D8C8D981305C0E88927
:10025000F989808185FD24C0F62E0B8D10E00F5F9B
:100260001F4F0F731127E02E8C8DE8120CC00FB6B4
:1002700007FCFACFE889F989808185FFF5CFCE01A7
:100280000E94F900F1CF8B8DFE01E80FF11DE35ABA
:10029000FF4FF0820B8FEA89FB898081806207C063
:1002A000EE89FF896083E889F98980818064808391
:1002B00081E090E0DF91CF911F910F91FF90EF903F
:1002C0000895CF93DF93EC01888D8823C9F0EA89E4
:1002D000FB89808185FD05C0A889B9898C9186FD3F
:1002E0000FC00FB607FCF5CF808185FFF2CFA8893C
:1002F000B9898C9185FFEDCFCE010E94F900E7CF3F
:10030000DF91CF91089580E090E0892B29F00E9441
:10031000EF0081110C94000008953FB7F89480918C
:100320008F0190919001A0919101B091920126B519
:10033000A89B05C02F3F19F00196A11DB11D3FBF1D
:10034000BA2FA92F982F8827820F911DA11DB11DAB
:10035000BC01CD0142E0660F771F881F991F4A95A7
:10036000D1F70895089580E090E008956115710532
:1003700079F0FB0101900020E9F73197AF01461BAE
:10038000570BDC01ED91FC910280F381E02D099483
:1003900080E090E008950C94B6014F925F926F92C6
:1003A0007F92EF92FF920F931F93CF93DF93CDB77E
:1003B000DEB7A1970FB6F894DEBF0FBECDBF7C01AC
:1003C000FA01CB0119A2223008F42AE08E010F5D58
:1003D0001F4F422E512C612C712CBF01A3019201A1
:1003E0000E94760CF901CA01015011096A3014F417
:1003F000605D01C0695CD8016C93232B242B252BF5
:1004000061F7B801C7010E94B601A1960FB6F89432
:10041000DEBF0FBECDBFDF91CF911F910F91FF9037
:10042000EF907F906F905F904F9008951F920F9282
:100430000FB60F9211242F933F934F935F936F93B7
:100440007F938F939F93AF93BF93EF93FF9381EA33
:1004500091E00E94F900FF91EF91BF91AF919F91C0
:100460008F917F916F915F914F913F912F910F905D
:100470000FBE0F901F9018951F920F920FB60F92FC
:1004800011242F938F939F93EF93FF93E091B101EA
:10049000F091B2018081E091B701F091B80182FD45
:1004A00012C090818091BA018F5F8F732091BB0140
:1004B000821751F0E091BA01F0E0EF55FE4F958FB1
:1004C0008093BA0101C08081FF91EF919F918F913C
:1004D0002F910F900FBE0F901F90189590E0FC0188
:1004E000EC55FF4F3491FC01E057FF4F2491FC0184
:1004F000E458FF4FE491EE2309F43BC0332339F174
:10050000333091F038F43130A9F0323001F584B550
:100510008F7D12C0373091F03830A1F03430B9F40B
:10052000809180008F7D03C0809180008F778093C1
:1005300080000DC084B58F7784BD09C08091B00064
:100540008F7703C08091B0008F7D8093B000F0E082
:10055000EE0FFF1FEE58FF4FA591B4918FB7F8949F
:10056000EC91611103C020952E2301C02E2B2C93FA
:100570008FBF0895CF93DF93EC0160E08E810E94DE
:100580006E0261E08E810E946E0260E08E810E94A8
:100590006E028BE891E00197F1F7DF91CF9108951A
:1005A000CF93DF9390E0FC01E057FF4F2491FC01D3
:1005B000E458FF4F8491882361F190E0880F991FE0
:1005C000FC01E859FF4FC591D491FC01EE58FF4F53
:1005D000A591B491611109C09FB7F89488812095C5
:1005E00082238883EC912E230BC0623061F49FB785
:1005F000F8943881822F809583238883EC912E2B69
:100600002C939FBF06C08FB7F894E8812E2B2883C8
:100610008FBFDF91CF9108958E3008F08E50877094
:100620002091000190E4299F90011124822B809356
:100630007C0080917A00806480937A0080917A00B7
:1006400086FDFCCF809178002091790090E0922B7C
:1006500008952FB7F89460918B0170918C0180916F
:100660008D0190918E012FBF08951F920F920FB6AA
:100670000F9211242F933F938F939F93AF93BF9328
:1006800080918B0190918C01A0918D01B0918E0190
:1006900030918A0123E0230F2D3720F40196A11D0C
:1006A000B11D05C026E8230F0296A11DB11D2093A0
:1006B0008A0180938B0190938C01A0938D01B0935C
:1006C0008E0180918F0190919001A0919101B09144
:1006D00092010196A11DB11D80938F01909390010D
:1006E000A0939101B0939201BF91AF919F918F918F
:1006F0003F912F910F900FBE0F901F901895CF92A2
:10070000DF92EF92FF920F931F93CF93DF937C01C1
:100710006C0187E0C80ED11CC0E0D0E0062F10E0CD
:10072000B8010C2E02C0759567950A94E2F76170C6
:10073000F60181916F010E946E022196C430D105AD
:1007400079F7C701DF91CF911F910F91FF90EF9043
:10075000DF90CF900C94BA02CF92DF92EF92FF928B
:100760000F931F93CF93DF93EC01F62E642F8C81B0
:100770000E946E028D818F3F19F060E00E946E0230
:100780008F850F2D10E084FF25C06E0187E0C80E15
:10079000D11CE12CF12CB8010E2C02C07595679587
:1007A0000A94E2F76170F60181916F010E946E0276
:1007B000FFEFEF1AFF0A88E0E816F10461F7CE01B7
:1007C000DF91CF911F910F91FF90EF90DF90CF902D
:1007D0000C94BA02B80184E0759567958A95E1F7A3
:1007E000CE010E947F036F2DCE01DF91CF911F912B
:1007F0000F91FF90EF90DF90CF900C947F0341E03A
:100800000E94AC0381E090E0089540E00C94AC03BA
:10081000CF93DF93EC018091A70223E333E343E519
:1008200050E4811130C06091A0027091A1028091CA
:10083000A2029091A3020E94100C811112C029E51E
:1008400036E0DE010E94EF0D20E034E040E050E0B1
:100850000E94980CDA01C90189539340A109B1099A
:1008600041C020E639E0DE010E94EF0D20E034E0D7
:1008700040E050E00E94980CDA01C9018052934098
:10088000A109B1092FC06091A0027091A1028091CD
:10089000A2029091A3020E94100C811112C02CE9B7
:1008A00031E0DE010E94EF0D20E034E040E050E056
:1008B0000E94980CDA01C9018E5C9109A109B10965
:1008C00011C027EA32E0DE010E94EF0D20E034E0A3
:1008D00040E050E00E94980CDA01C9018450914038
:1008E000A109B109DF91CF9108950E94100EEF92F6
:1008F000FF920F931F93CF93DF93EC01623018F0B8
:100900008F8588608F876B8B1C8A80E48D8B80E15C
:100910008E8B80E58F8B61E08C810E94D0028D816F
:100920008F3F19F061E00E94D00261E08E810E9449
:10093000D0027E0187E0E80EF11C00E010E08F8518
:1009400084FD03C084E090E002C088E090E00817D6
:1009500019074CF461E0F70181917F010E94D002F8
:100960000F5F1F4FECCF8BE39DE00197F1F760E045
:100970008C810E946E0260E08E810E946E028D81E9
:100980008F3F19F060E00E946E026F8564FD1DC00C
:1009900063E0CE010E947F030BE416E4C8010197D7
:1009A000F1F763E0CE010E947F03C8010197F1F7E0
:1009B00063E0CE010E947F0383E592E00197F1F7A7
:1009C00062E0CE010E947F0316C06062CE010E94E9
:1009D00005048BE496E40197F1F76F856062CE0120
:1009E0000E94050483E592E00197F1F76F8560624C
:1009F000CE010E9405046F856062CE010E9405044D
:100A000084E0888B6CE0CE010E94050461E0CE0199
:100A10000E9405048BE39FE10197F1F782E0898B47
:100A200066E0CE01DF91CF911F910F91FF90EF9083
:100A30000C9405044F925F926F927F928F929F92D7
:100A4000AF92BF92CF92DF92EF92FF92CF93DF935C
:100A50007C016B01EA0123E333E343E550E4609159
:100A6000A0027091A1028091A2029091A3020E9423
:100A7000100CA701FF0C660B770B0D2C000CEE0879
:100A8000FF084E01DD0FAA08BB08811110C0CB0181
:100A9000BA01EAE0660F771F881F991FEA95D1F720
:100AA000F4EE4F2EFCE05F2E612C712C0FC0CB01B9
:100AB000BA014AE0660F771F881F991F4A95D1F740
:100AC00058E8452E53E1552E612C712CA30192015B
:100AD0000E94980C3093950220939402C701B601AE
:100AE0002AE0660F771F881F991F2A95D1F7A30167
:100AF00092010E94980C3093970220939602C501B0
:100B0000B4013AE0660F771F881F991F3A95D1F715
:100B1000A30192010E94980C3093990220939802AD
:100B2000DF91CF91FF90EF90DF90CF90BF90AF908B
:100B30009F908F907F906F905F904F900895CF938C
:100B4000DF93C6E8D2E088850E940C032E853F859E
:100B5000820F931F0296DF91CF9108958F929F92FB
:100B6000AF92BF92CF92DF92EF92FF920F931F93BB
:100B7000CF93DF938AE0882E912CE12CF12CC0E0FA
:100B8000D0E000E010E0A12CB12CC12CD12C609160
:100B9000A4027091A502A616B70654F40E949F0500
:100BA0000E940804C80ED91E8FEFA81AB80AEFCF0A
:100BB000C6010E94DB0D060F171FA12CB12CC12C02
:100BC000D12C6091A4027091A502A616B7069CF4E0
:100BD000809190020E940C0320919602309197021E
:100BE000820F931F02960E940804C80ED91E8FEF31
:100BF000A81AB80AE6CFC6010E94DB0DC60FD71FA0
:100C0000A12CB12CC12CD12C6091A4027091A50211
:100C1000A616B70694F4809192020E940C032091CC
:100C2000980230919902820F931F0E940804C80E07
:100C3000D91E8FEFA81AB80AE7CFC6010E94DB0DB4
:100C4000E60EF71E81E0881A910809F09CCF2AE091
:100C500030E0C801B9010E94DB0D8B01CE01B90162
:100C60000E94DB0DEB01C701B9010E94DB0DFB0106
:100C7000C80117FF04C088279927801B910B44E601
:100C800050E0481B590B141615061CF0AC014456D5
:100C900051099E01D7FF04C0222733272C1B3D0B8F
:100CA00084E690E0821B930B181619061CF0C9010C
:100CB00084569109BF01F7FF04C0662777276E1B92
:100CC0007F0B24E630E0261B370B121613061CF0B0
:100CD0009B0124563109481759074CF44217530712
:100CE00034F410161106DCF08FEF9FEF23C0841749
:100CF00095074CF48217930734F41C161D0694F0E4
:100D00008EEF9FEF17C0241735077CF4281739079B
:100D100064F41E161F0664F08DEF9FEF0BC081E098
:100D200090E008C082E090E005C080E090E002C062
:100D300083E090E0DF91CF911F910F91FF90EF90B2
:100D4000DF90CF90BF90AF909F908F900895CF93FA
:100D5000DF93EC0123E333E343E550E46091A00229
:100D60007091A1028091A2029091A3020E94100CA6
:100D7000811103C024EE3CE002C028E833E1DE012B
:100D80000E94EF0D20E034E040E050E00E94980C1B
:100D9000C901DF91CF9108958F929F92AF92BF9238
:100DA000CF92DF92EF92FF926B017C010E942903A8
:100DB0004B015C01C60ED71EE81EF91E0E942903D6
:100DC000681579058A059B0528F0C616D706E8063A
:100DD000F906A0F7FF90EF90DF90CF90BF90AF9013
:100DE0009F908F900895E091BB02E23010F4E150A3
:100DF00001C0E1E0F0E0E855FD4F9489682F690FEC
:100E0000606888EA92E00C940504CF92DF92EF923A
:100E1000FF920F931F93CF93DF93EC016A017B0145
:100E2000E881F9810190F081E02D6DE209958C0156
:100E300044275527BA014C195D096E097F092AE03C
:100E4000CE010E94CD01800F911FDF91CF911F91A4
:100E50000F91FF90EF90DF90CF900895AC01990F24
:100E6000660B770B77FF04C088EA92E00C940507C5
:100E70002AE088EA92E00C94CD01789484B58260EF
:100E800084BD84B5816084BD85B5826085BD85B52E
:100E9000816085BD80916E00816080936E001092AC
:100EA0008100809181008260809381008091810027
:100EB00081608093810080918000816080938000B8
:100EC0008091B10084608093B1008091B000816016
:100ED0008093B00080917A00846080937A00809142
:100EE0007A00826080937A0080917A00816080939A
:100EF0007A0080917A00806880937A001092C10015
:100F00001092820210928302109284021092850243
:100F1000109240021092410210924202109243023B
:100F200068EB7BE080E090E00E94CC0681EA91E0F3
:100F30009093810280938002E091B101F091B2011F
:100F400082E08083E091AD01F091AE011082E091EA
:100F5000AF01F091B00180E180831092B901E0917E
:100F6000B501F091B60186E08083E091B301F09184
:100F7000B401808180618083E091B301F091B4017C
:100F8000808188608083E091B301F091B401808119
:100F900080688083E091B301F091B40180818F7DFE
:100FA00080830E94290360934002709341028093E2
:100FB0004202909343026FE171E080918002909130
:100FC00081020E94CB016AE070E080E090E00E9424
:100FD000CC06C1E0C093540261E08DE00E94D002D3
:100FE00061E08CE00E94D00260E08BE00E94D002C1
:100FF00061E082E00E94D00260E08EE00E94D002B8
:1010000060E08FE00E94D00260E080E10E94D002A8
:1010100061E08DE00E946E0260E08CE00E946E0252
:101020008DE090E090938702809386028CE090E0C0
:1010300090938902809388028BE090E090938B02DA
:1010400080938A0282E090E090938D0280938C02DC
:101050008EE090E090938F0280938E028FE090E07C
:10106000909391028093900280E190E0909393029C
:10107000809392021092A60240E050E060E070E09F
:1010800080E090E00E941A0580E090E0A0EAB0E4E1
:101090008093A0029093A102A093A202B093A30216
:1010A0008AE090E09093A5028093A402C093A702E7
:1010B00060E080918C020E946E0283E393E3A3E5DB
:1010C000B0E48093A0029093A102A093A202B093F7
:1010D000A302109200011092A70261E080918C029D
:1010E0000E946E020E94AE05AC01990F660B770B51
:1010F00077FF05C081EA91E00E94050705C02AE05C
:1011000081EA91E00E94CD016EE271E081EA91E016
:101110000E94B60161E371E081EA91E00E94CB0197
:10112000C0E0D0E0412C512C320153014201730147
:10113000620104E610E0BE010D2E000C880B990B35
:101140000E94170C20E030E44CE955E40E94100C9A
:1011500087FF55C00E949F050E94A706BC01990FFA
:10116000880B990B0E94170C9B01AC01C701B601BB
:101170000E94C70C6B017C01809190020E940C03BD
:101180002091960230919702820F931F02960E943F
:10119000A706BC01990F880B990B0E94170C9B01A5
:1011A000AC01C501B4010E94C70C4B015C018091E8
:1011B00092020E940C032091980230919902820FB2
:1011C000931F0E94A706BC01990F880B990B0E94E0
:1011D000170C9B01AC01C301B2010E94C70C2B018B
:1011E0003C01CE01B8010E94DB0D892B31F469E48A
:1011F00071E081EA91E00E94CB0121969CCF809121
:10120000A70220E030E44CE955E4811133C0C3016A
:10121000B2010E94330D9B01AC0160E070E88AEEE0
:1012200094E40E94C60C0E94A50D2B013C0120E015
:1012300030E44CE955E4C501B4010E94330D9B0133
:10124000AC0160E070EE80ED94E40E94C60C0E9458
:10125000A50D4B015C0120E030E44CE955E4C701E9
:10126000B6010E94330D9B01AC0160E070E081ED9E
:1012700094E432C0C301B2010E94330D9B01AC0162
:1012800060E070E289E195E40E94C60C0E94A50D21
:101290002B013C0120E030E44CE955E4C501B401E8
:1012A0000E94330D9B01AC0160E070E48EEC94E48D
:1012B0000E94C60C0E94A50D4B015C0120E030E4A9
:1012C0004CE955E4C701B6010E94330D9B01AC0106
:1012D00060E070E48EEC94E40E94C60C0E94A50DC0
:1012E000DC01CB01A201B4010E941A050E94AE05E7
:1012F000181619062CF40E94AE05039729F413C0A2
:101300000E94AE05039679F06BE471E081EA91E00A
:101310000E94CB0140E050E060E070E080E090E0AF
:101320000E941A0506C060E671E081EA91E00E9421
:10133000CB0162E088EA92E00E94770466E671E001
:1013400088EA92E00E94CB0194EF892E992493942D
:10135000A12CB12C0E942903672B682B692B41F427
:101360000E942903623071058105910508F40AC1C4
:101370000E94290360939D0170939E0180939F01B9
:101380009093A0010091990110919A0120919B01E5
:1013900030919C01601771078207930740F46093B6
:1013A000990170939A0180939B0190939C01009105
:1013B000990110919A0120919B0130919C016B0140
:1013C0007C01C01AD10AE20AF30A970186010A3F9A
:1013D00011052105310508F4D5C06093990170937A
:1013E0009A0180939B0190939C0180924C02909271
:1013F0004D02A0924E02B0924F02109250021092F3
:101400005102109252021092530280914402909124
:101410004502A0914602B091470280934802909302
:101420004902A0934A02B0934B020E9429036093A1
:1014300044027093450280934602909347020E94B3
:10144000290360934002709341028093420290937B
:1014500043020E9429036B017C0160E771E08091E7
:101460008002909181020E94CB012AE041E050E08D
:1014700060E070E080918002909181020E94CD0135
:1014800067E771E080918002909181020E94CB0118
:101490002AE0B701A60180918002909181020E940A
:1014A000CD0169E771E080918002909181020E94F4
:1014B000CB018091440290914502A0914602B091E7
:1014C0004702B701A601481B590B6A0B7B0B2AE0A8
:1014D00080918002909181020E94CD0169E771E0C4
:1014E00080918002909181020E94CB014091440240
:1014F00050914502609146027091470280914802E6
:1015000090914902A0914A02B0914B02481B590B9D
:101510006A0B7B0B2AE080918002909181020E94ED
:10152000CD016BE771E080918002909181020E9471
:10153000CB010E942903AB01BC012AE0809180020B
:10154000909181020E94CD01C0918002D0918102D0
:101550006DE771E0CE010E94B6016EE271E0CE014E
:101560000E94B60165E070E080E090E00E94CC0649
:101570000E942903609344027093450280934602BF
:10158000909347020E949F05909398018093970142
:10159000809190020E940C03209196023091970254
:1015A000820F931F029690939601809395010E945B
:1015B0009F05909394018093930180E00E94F3062D
:1015C00064E871E088EA92E00E94CB0181E00E9429
:1015D000F30680919701909198010E942E0785E073
:1015E0000E94F30666E871E088EA92E00E94CB016F
:1015F00086E00E94F30680919501909196010E94E9
:101600002E078AE00E94F30668E871E088EA92E01B
:101610000E94CB018BE00E94F3068091950190918E
:1016200096010E942E070E948D012B013C0184EF40
:10163000C82EDD24D394E12CF12C0E948D01DC0115
:10164000CB0184199509A609B709883E9340A105E5
:10165000B10558F021E0C21AD108E108F10888EE7E
:10166000480E83E0581E611C711CC114D104E104B2
:10167000F10419F70E9483016DCEE1EAF1E01382D3
:10168000128288EE93E0A0E0B0E084839583A68385
:10169000B78385E091E09183808385EC90E0958726
:1016A000848784EC90E09787868780EC90E0918B2C
:1016B000808B81EC90E0938B828B82EC90E0958B19
:1016C000848B86EC90E0978B868B118E128E138E16
:1016D000148EEEE3F2E016821782108611861286CF
:1016E00013861486158616861786108A118A128A22
:1016F000138A148A158AE8EAF2E01382128287E1DB
:1017000091E09183808388E084838FEF858389E0F3
:10171000868384E0878385E0808786E0818787E011
:1017200082871386148615861686178661E0CF0198
:101730000E947704E6E8F2E011821082138212829E
:1017400015821482178216821186108613861286DD
:101750001586148617861686118A108A138A128AAD
:10176000158A148A178A168A118E108E128E138E7D
:10177000148E158E178E168E10A211A2089597F949
:101780009F6780E870E060E008959FEF80EC089527
:1017900000240A9416161706180609060895002450
:1017A0000A9412161306140605060895092E0394CA
:1017B000000C11F4882352F0BB0F40F4BF2B11F43E
:1017C00060FF04C06F5F7F4F8F4F9F4F089557FD9D
:1017D0009058440F551F59F05F3F71F04795880F9F
:1017E00097FB991F61F09F3F79F087950895121636
:1017F00013061406551FF2CF4695F1DF08C01616E2
:1018000017061806991FF1CF869571056105089492
:101810000895E894BB2766277727CB0197F90895A9
:101820000E94520C08F481E00895E89409C097FBE7
:101830003EF490958095709561957F4F8F4F9F4FA7
:101840009923A9F0F92F96E9BB279395F6958795EB
:1018500077956795B795F111F8CFFAF4BB0F11F4AE
:1018600060FF1BC06F5F7F4F8F4F9F4F16C0882355
:1018700011F096E911C0772321F09EE8872F762F8B
:1018800005C0662371F096E8862F70E060E02AF0CC
:101890009A95660F771F881FDAF7880F96958795B8
:1018A00097F90895990F0008550FAA0BE0E8FEEF8D
:1018B00016161706E807F907C0F012161306E40714
:1018C000F50798F0621B730B840B950B39F40A260D
:1018D00061F0232B242B252B21F408950A2609F4EB
:1018E000A140A6958FEF811D811D0895A1E21A2EBA
:1018F000AA1BBB1BFD010DC0AA1FBB1FEE1FFF1FB4
:10190000A217B307E407F50720F0A21BB30BE40B03
:10191000F50B661F771F881F991F1A9469F760954A
:101920007095809590959B01AC01BD01CF01089504
:10193000052E97FB1EF400940E94AF0C57FD07D0B4
:101940000E94760C07FC03D04EF40C94AF0C50951B
:101950004095309521953F4F4F4F5F4F089590959B
:101960008095709561957F4F8F4F9F4F0895A29FEF
:10197000B001B39FC001A39F700D811D1124911D63
:10198000B29F700D811D1124911D08955058BB27E1
:10199000AA270E94DE0C0C94D60B0E94C80B38F0CC
:1019A0000E94CF0B20F039F49F3F19F426F40C94D9
:1019B000C50B0EF4E095E7FB0C94BF0BE92F0E94DA
:1019C000E70B58F3BA17620773078407950720F0EF
:1019D00079F4A6F50C94090C0EF4E0950B2EBA2FB1
:1019E000A02D0B01B90190010C01CA01A001112425
:1019F000FF27591B99F0593F50F4503E68F11A16D1
:101A0000F040A22F232F342F4427585FF3CF469561
:101A100037952795A795F0405395C9F77EF41F1683
:101A2000BA0B620B730B840BBAF09150A1F0FF0F4D
:101A3000BB1F661F771F881FC2F70EC0BA0F621F39
:101A4000731F841F48F4879577956795B795F79529
:101A50009E3F08F0B0CF9395880F08F09927EE0FBE
:101A60009795879508950E94470D0C94D60B0E9478
:101A7000CF0B58F00E94C80B40F029F45F3F29F0CB
:101A80000C94BF0B51110C940A0C0C94C50B0E94C2
:101A9000E70B68F39923B1F3552391F3951B550B8D
:101AA000BB27AA2762177307840738F09F5F5F4F31
:101AB000220F331F441FAA1FA9F335D00E2E3AF070
:101AC000E0E832D091505040E695001CCAF72BD088
:101AD000FE2F29D0660F771F881FBB1F26173707D9
:101AE0004807AB07B0E809F0BB0B802DBF01FF270B
:101AF00093585F4F3AF09E3F510578F00C94BF0B1E
:101B00000C940A0C5F3FE4F3983ED4F386957795E6
:101B10006795B795F7959F5FC9F7880F911D9695C3
:101B2000879597F90895E1E0660F771F881FBB1F1F
:101B3000621773078407BA0720F0621B730B840BCC
:101B4000BA0BEE1F88F7E09508950E94AC0D6894DB
:101B5000B1110C940A0C08950E94EF0B88F09F5766
:101B600098F0B92F9927B751B0F0E1F0660F771FC1
:101B7000881F991F1AF0BA95C9F714C0B13091F0B7
:101B80000E94090CB1E008950C94090C672F782F7E
:101B90008827B85F39F0B93FCCF38695779567957C
:101BA000B395D9F73EF490958095709561957F4FE8
:101BB0008F4F9F4F089597FB072E16F4009407D080
:101BC00077FD09D00E94F60D07FC05D03EF49095F4
:101BD00081959F4F0895709561957F4F08950E945C
:101BE000B70CB7FF0895821B930B0895AA1BBB1B6C
:101BF00051E107C0AA1FBB1FA617B70710F0A61B0D
:101C0000B70B881F991F5A95A9F780959095BC012D
:101C1000CD010895EE0FFF1F0590F491E02D09947A
:0E1C200081E090E0F8940C94150EF894FFCF3C
:101C2E0001000000001A018700B2006101E300C14B
:101C3E0000D50000000000FF038700B301B201567B
:101C4E004D4450565F317C315F564D4450560D0A0F
:101C5E00000A43616C6962726174696E67204D4D52
:101C6E004137333631303131002E000A756E6162E4
:101C7E006C6520746F2063616C69627261746500BB
:101C8E000A444F4E45005443432046617465630039
:101C9E00564D4450455F003A323A007C005F564D37
:0A1CAE0044504500580059005A0048
:00000001FF
