:100000000C945D000C9485000C9485000C94850084
:100010000C9485000C9485000C9485000C9485004C
:100020000C9485000C9485000C9485000C9485003C
:100030000C9485000C9485000C9485000C9485002C
:100040000C94C0060C9485000C948E060C946806E3
:100050000C9485000C9485000C9485000C9485000C
:100060000C9485000C9485000000000024002700FB
:100070002A0000000000250028002B0004040404CE
:100080000404040402020202020203030303030342
:10009000010204081020408001020408102001021F
:1000A00004081020000000080002010000030407FB
:1000B00000000000000000000A0711241FBECFEF5F
:1000C000D8E0DEBFCDBF11E0A0E0B1E0E2E9F8E1A9
:1000D00002C005900D92A836B107D9F722E0A8E634
:1000E000B1E001C01D92AE34B207E1F710E0CDE5FA
:1000F000D0E004C02197FE010E943C0CCC35D10712
:10010000C9F70E947A070C94470C0C9400004F9298
:100110005F926F927F928F929F92AF92BF92CF9297
:10012000DF92EF92FF92CF93DF937C016B01EA01A4
:1001300023E333E343E550E460912E0270912F02F4
:1001400080913002909131020E94FF0AA701FF0CBA
:10015000660B770B0D2C000CEE08FF084E01DD0F2F
:10016000AA08BB08811110C0CB01BA01EAE0660FF2
:10017000771F881F991FEA95D1F7F4EE4F2EFCE008
:100180005F2E612C712C0FC0CB01BA014AE0660FC3
:10019000771F881F991F4A95D1F758E8452E53E1DC
:1001A000552E612C712CA30192010E94420A3093BA
:1001B000230220932202C701B6012AE0660F771FAF
:1001C000881F991F2A95D1F7A30192010E94420A24
:1001D0003093250220932402C501B4013AE0660F52
:1001E000771F881F991F3A95D1F7A30192010E94AA
:1001F000420A3093270220932602DF91CF91FF908D
:10020000EF90DF90CF90BF90AF909F908F907F90B6
:100210006F905F904F900895CF93DF93EC018091A2
:10022000350223E333E343E550E4811130C06091AC
:100230002E0270912F0280913002909131020E9423
:10024000FF0A811112C029E536E0DE010E94210C6F
:1002500020E034E040E050E00E94420ADA01C901A7
:1002600089539340A109B10941C020E639E0DE017C
:100270000E94210C20E034E040E050E00E94420A5D
:10028000DA01C90180529340A109B1092FC06091E0
:100290002E0270912F0280913002909131020E94C3
:1002A000FF0A811112C02CE931E0DE010E94210C0D
:1002B00020E034E040E050E00E94420ADA01C90147
:1002C0008E5C9109A109B10911C027EA32E0DE0173
:1002D0000E94210C20E034E040E050E00E94420AFD
:1002E000DA01C90184509140A109B109DF91CF9190
:1002F0000895CF93DF93EC0123E333E343E550E428
:1003000060912E0270912F02809130029091310203
:100310000E94FF0A811103C024EE3CE002C028E8DD
:1003200033E1DE010E94210C20E034E040E050E0A7
:100330000E94420AC901DF91CF910895FC01538DBB
:10034000448D252F30E0842F90E0821B930B5417AF
:1003500010F0CF96089501970895FC01918D828D3C
:10036000981761F0828DDF01A80FB11D5D968C9109
:10037000928D9F5F9F73928F90E008958FEF9FEF14
:100380000895FC01918D828D981731F0828DE80FD0
:10039000F11D858D90E008958FEF9FEF0895FC018A
:1003A000918D228D892F90E0805C9F4F821B910957
:1003B0008F7399270895FC01848DDF01A80FB11D6B
:1003C000A35ABF4F2C91848D90E001968F7399278B
:1003D000848FA689B7892C93A089B1898C91806478
:1003E0008C93938D848D981306C00288F389E02D39
:1003F00080818F7D80830895EF92FF920F931F93EA
:10040000CF93DF93EC0181E0888F9B8D8C8D9813C7
:1004100005C0E889F989808185FD24C0F62E0B8D01
:1004200010E00F5F1F4F0F731127E02E8C8DE81225
:100430000CC00FB607FCFACFE889F989808185FFE7
:10044000F5CFCE010E94DB01F1CF8B8DFE01E80FCD
:10045000F11DE35AFF4FF0820B8FEA89FB898081FF
:10046000806207C0EE89FF896083E889F98980810D
:100470008064808381E090E0DF91CF911F910F91A4
:10048000FF90EF900895CF93DF93EC01888D882340
:10049000C9F0EA89FB89808185FD05C0A889B989F1
:1004A0008C9186FD0FC00FB607FCF5CF808185FFCC
:1004B000F2CFA889B9898C9185FFEDCFCE010E943A
:1004C000DB01E7CFDF91CF91089587E791E00E94AC
:1004D000CF0121E0892B09F420E0822F089580E0EC
:1004E00090E0892B29F00E94650281110C94000094
:1004F0000895CF92DF92EF92FF920F931F93CF93C5
:10050000DF936C017A018B01C0E0D0E0CE15DF05EE
:1005100089F0D8016D918D01D601ED91FC9101908A
:10052000F081E02DC6010995892B11F47E0102C0EE
:100530002196ECCFC701DF91CF911F910F91FF90D2
:10054000EF90DF90CF90089590E0FC01EC55FF4FC5
:100550003491FC01E057FF4F2491FC01E458FF4F18
:10056000E491EE2309F43BC0332339F1333091F0A9
:1005700038F43130A9F0323001F584B58F7D12C0E6
:10058000373091F03830A1F03430B9F480918000E8
:100590008F7D03C0809180008F77809380000DC095
:1005A00084B58F7784BD09C08091B0008F7703C078
:1005B0008091B0008F7D8093B000F0E0EE0FFF1FC0
:1005C000EE58FF4FA591B4918FB7F894EC9161115B
:1005D00003C020952E2301C02E2B2C938FBF08958E
:1005E000CF93DF9390E0FC01E057FF4F2491FC0193
:1005F000E458FF4F8491882361F190E0880F991FA0
:10060000FC01E859FF4FC591D491FC01EE58FF4F12
:10061000A591B491611109C09FB7F8948881209584
:1006200082238883EC912E230BC0623061F49FB744
:10063000F8943881822F809583238883EC912E2B28
:100640002C939FBF06C08FB7F894E8812E2B288388
:100650008FBFDF91CF9108958E3008F08E50877054
:100660002091000190E4299F90011124822B809316
:100670007C0080917A00806480937A0080917A0077
:1006800086FDFCCF809178002091790090E0922B3C
:100690000895CF93DF93C4E1D2E088850E942C03B4
:1006A0002E853F85820F931F0296DF91CF9108958B
:1006B0008F929F92AF92BF92CF92DF92EF92FF9272
:1006C0000F931F93CF93DF938AE0882E912CE12C18
:1006D000F12CC0E0D0E000E010E0A12CB12CC12C46
:1006E000D12C6091320270913302A616B70654F4F1
:1006F0000E9449030E940C01C80ED91E8FEFA81A50
:10070000B80AEFCFC6010E940D0C060F171FA12CCF
:10071000B12CC12CD12C6091320270913302A616FB
:10072000B7069CF480911E020E942C0320912402A3
:1007300030912502820F931F02960E940C01C80E71
:10074000D91E8FEFA81AB80AE6CFC6010E940D0C79
:10075000C60FD71FA12CB12CC12CD12C6091320215
:1007600070913302A616B70694F4809120020E947D
:100770002C032091260230912702820F931F0E94A2
:100780000C01C80ED91E8FEFA81AB80AE7CFC60110
:100790000E940D0CE60EF71E81E0881A910809F000
:1007A0009CCF2AE030E0C801B9010E940D0C8B01FA
:1007B000CE01B9010E940D0CEB01C701B9010E94E5
:1007C0000D0CFB01C80117FF04C088279927801B67
:1007D000910B44E650E0481B590B141615061CF00B
:1007E000AC01445651099E01D7FF04C0222733278C
:1007F0002C1B3D0B84E690E0821B930B1816190608
:100800001CF0C90184569109BF01F7FF04C0662797
:1008100077276E1B7F0B24E630E0261B370B121662
:1008200013061CF09B0124563109481759074CF454
:100830004217530734F410161106DCF08FEF9FEFC8
:1008400023C0841795074CF48217930734F41C16C1
:100850001D0694F08EEF9FEF17C0241735077CF428
:100860002817390764F41E161F0664F08DEF9FEFFA
:100870000BC081E090E008C082E090E005C080E01D
:1008800090E002C083E090E0DF91CF911F910F9143
:10089000FF90EF90DF90CF90BF90AF909F908F90A0
:1008A00008953FB7F89480916D0190916E01A091E9
:1008B0006F01B091700126B5A89B05C02F3F19F0BC
:1008C0000196A11DB11D3FBFBA2FA92F982F8827D0
:1008D000820F911DA11DB11DBC01CD0142E0660F2B
:1008E000771F881F991F4A95D1F70895CF93DF93FB
:1008F000EC0160E08E810E94A40261E08E810E9482
:10090000A40260E08E810E94A4028BE891E001972E
:10091000F1F7DF91CF910895CF92DF92EF92FF929E
:100920000F931F93CF93DF937C016C0187E0C80E78
:10093000D11CC0E0D0E0062F10E0B8010C2E02C0A0
:10094000759567950A94E2F76170F60181916F01E0
:100950000E94A4022196C430D10579F7C701DF9126
:10096000CF911F910F91FF90EF90DF90CF900C945B
:100970007604CF92DF92EF92FF920F931F93CF9363
:10098000DF93EC01F62E642F8C810E94A4028D81EE
:100990008F3F19F060E00E94A4028F850F2D10E0B8
:1009A00084FF25C06E0187E0C80ED11CE12CF12C1C
:1009B000B8010E2C02C0759567950A94E2F7617034
:1009C000F60181916F010E94A402FFEFEF1AFF0A66
:1009D00088E0E816F10461F7CE01DF91CF911F9115
:1009E0000F91FF90EF90DF90CF900C947604B801B8
:1009F00084E0759567958A95E1F7CE010E948C0495
:100A00006F2DCE01DF91CF911F910F91FF90EF904D
:100A1000DF90CF900C948C0441E00E94B90481E0F7
:100A200090E0089540E00C94B904EF92FF920F9388
:100A30001F93CF93DF93EC01623018F08F858860AD
:100A40008F876B8B1C8A80E48D8B80E18E8B80E599
:100A50008F8B61E08C810E94F0028D818F3F19F0B5
:100A600061E00E94F00261E08E810E94F0027E014E
:100A700087E0E80EF11C00E010E08F8584FD03C0E4
:100A800084E090E002C088E090E0081719074CF479
:100A900061E0F70181917F010E94F0020F5F1F4F1B
:100AA000ECCF8BE39DE00197F1F760E08C810E9431
:100AB000A40260E08E810E94A4028D818F3F19F014
:100AC00060E00E94A4026F8564FD1DC063E0CE015A
:100AD0000E948C040BE416E4C8010197F1F763E06F
:100AE000CE010E948C04C8010197F1F763E0CE01AA
:100AF0000E948C0483E592E00197F1F762E0CE0159
:100B00000E948C0416C06062CE010E9412058BE424
:100B100096E40197F1F76F856062CE010E9412059D
:100B200083E592E00197F1F76F856062CE010E9444
:100B300012056F856062CE010E94120584E0888BE9
:100B40006CE0CE010E94120561E0CE010E94120508
:100B50008BE39FE10197F1F782E0898B66E0CE019C
:100B6000DF91CF911F910F91FF90EF900C941205A0
:100B7000E0914902E23010F4E15001C0E1E0F0E020
:100B8000EA5CFD4F9489682F690F606886E392E004
:100B90000C941205089580E090E008950E94420CA4
:100BA0006115710579F0FB0101900020E9F731979B
:100BB000AF01461B570BDC01ED91FC910280F381E4
:100BC000E02D099480E090E008954F925F926F923B
:100BD0007F92EF92FF920F931F93CF93DF93CDB746
:100BE000DEB7A1970FB6F894DEBF0FBECDBF7C0174
:100BF000FA01CB0119A2223008F42AE08E010F5D20
:100C00001F4F422E512C612C712CBF01A301920168
:100C10000E94610AF901CA01015011096A3014F4F5
:100C2000605D01C0695CD8016C93232B242B252BBC
:100C300061F7B801C7010E94D005A1960FB6F894DC
:100C4000DEBF0FBECDBFDF91CF911F910F91FF90FF
:100C5000EF907F906F905F904F900895CF92DF92CA
:100C6000EF92FF920F931F93CF93DF93EC016A01F2
:100C70007B01E881F9810190F081E02D6DE2099519
:100C80008C0144275527BA014C195D096E097F096B
:100C90002AE0CE010E94E505800F911FDF91CF91E0
:100CA0001F910F91FF90EF90DF90CF900895AC01CE
:100CB000990F660B770B77FF04C086E392E00C94E4
:100CC0002E062AE086E392E00C94E5050C94D0050C
:100CD0001F920F920FB60F9211242F933F934F93B1
:100CE0005F936F937F938F939F93AF93BF93EF9394
:100CF000FF9387E791E00E94DB01FF91EF91BF91A5
:100D0000AF919F918F917F916F915F914F913F91A3
:100D10002F910F900FBE0F901F9018951F920F925A
:100D20000FB60F9211242F938F939F93EF93FF93FE
:100D3000E0918701F09188018081E0918D01F0912F
:100D40008E0182FD12C09081809190018F5F8F7320
:100D500020919101821751F0E0919001F0E0E95863
:100D6000FE4F958F8093900101C08081FF91EF919C
:100D70009F918F912F910F900FBE0F901F901895FC
:100D80001F920F920FB60F9211242F933F938F93C0
:100D90009F93AF93BF938091690190916A01A09155
:100DA0006B01B0916C013091680123E0230F2D3766
:100DB00020F40196A11DB11D05C026E8230F02965F
:100DC000A11DB11D209368018093690190936A0170
:100DD000A0936B01B0936C0180916D0190916E01B5
:100DE000A0916F01B09170010196A11DB11D80937A
:100DF0006D0190936E01A0936F01B0937001BF914C
:100E0000AF919F918F913F912F910F900FBE0F90B7
:100E10001F901895E7E7F1E01382128288EE93E0C5
:100E2000A0E0B0E084839583A683B78385E091E05A
:100E30009183808385EC90E09587848784EC90E0B3
:100E40009787868780EC90E0918B808B81EC90E097
:100E5000938B828B82EC90E0958B848B86EC90E078
:100E6000978B868B118E128E138E148EE6E3F2E032
:100E70001382128287E191E09183808388E08483EA
:100E80008FEF858389E0868384E0878385E0808790
:100E900086E0818787E0828713861486158616860A
:100EA000178661E0CF010E941505E4E1F2E01182AE
:100EB0001082138212821582148217821682118682
:100EC0001086138612861586148617861686118A52
:100ED000108A138A128A158A148A178A168A118E22
:100EE000108E128E138E148E158E178E168E10A2E3
:100EF00011A20895789484B5826084BD84B5816020
:100F000084BD85B5826085BD85B5816085BD8091D4
:100F10006E00816080936E0010928100809181004C
:100F20008260809381008091810081608093810044
:100F3000809180008160809380008091B100846006
:100F40008093B1008091B00081608093B000809167
:100F50007A00846080937A0080917A008260809326
:100F60007A0080917A00816080937A0080917A0083
:100F7000806880937A001092C10061E08DE00E9449
:100F8000F00261E08CE00E94F00260E08BE00E94E1
:100F9000F00261E082E00E94F00260E08EE00E94D8
:100FA000F00260E08FE00E94F00260E080E10E94C9
:100FB000F00261E08DE00E94A40260E08CE00E94FB
:100FC000A4028DE090E090931502809314028CE0CF
:100FD00090E090931702809316028BE090E090933C
:100FE00019028093180282E090E090931B02809394
:100FF0001A028EE090E090931D0280931C028FE015
:1010000090E090931F0280931E0280E190E0909305
:101010002102809320021092340240E050E060E010
:1010200070E080E090E00E94870080E090E0A0EA1D
:10103000B0E480932E0290932F02A0933002B093DD
:1010400031028AE090E0909333028093320281E093
:101050008093350260E080911A020E94A40283E32B
:1010600093E3A3E5B0E480932E0290932F02A09324
:101070003002B0933102109200011092350261E00B
:1010800080911A020E94A4020E945803AC01990F99
:10109000660B770B77FF05C087E791E00E942E066D
:1010A00005C02AE087E791E00E94E5056FE171E065
:1010B00087E791E00E94D00562E271E087E791E066
:1010C0000E946606C0E0D0E0412C512C3201530151
:1010D00042017301620104E610E0BE010D2E000C16
:1010E000880B990B0E94AE0B20E030E44CE955E4EC
:1010F0000E94FF0A87FF55C00E9449030E947901A0
:10110000BC01990F880B990B0E94AE0B9B01AC019F
:10111000C701B6010E94930A6B017C0180911E02F7
:101120000E942C032091240230912502820F931FEC
:1011300002960E947901BC01990F880B990B0E94BD
:10114000AE0B9B01AC01C501B4010E94930A4B0197
:101150005C01809120020E942C0320912602309194
:101160002702820F931F0E947901BC01990F880BFF
:10117000990B0E94AE0B9B01AC01C301B2010E940E
:10118000930A2B013C01CE01B8010E940D0C892B62
:1011900031F46AE371E087E791E00E9466062196E8
:1011A0009CCF8091350220E030E44CE955E4811178
:1011B00033C0C301B2010E94040B9B01AC0160E08B
:1011C00070E88AEE94E40E94920A0E94760B2B014A
:1011D0003C0120E030E44CE955E4C501B4010E9433
:1011E000040B9B01AC0160E070EE80ED94E40E9482
:1011F000920A0E94760B4B015C0120E030E44CE93E
:1012000055E4C701B6010E94040B9B01AC0160E0EC
:1012100070E081ED94E432C0C301B2010E94040B7E
:101220009B01AC0160E070E289E195E40E94920AC2
:101230000E94760B2B013C0120E030E44CE955E4A0
:10124000C501B4010E94040B9B01AC0160E070E495
:101250008EEC94E40E94920A0E94760B4B015C0192
:1012600020E030E44CE955E4C701B6010E94040BCC
:101270009B01AC0160E070E48EEC94E40E94920A61
:101280000E94760BDC01CB01A201B4010E94870011
:101290000E945803181619062CF40E94580303974D
:1012A00029F413C00E945803039679F06CE371E0AF
:1012B00087E791E00E94660640E050E060E070E061
:1012C00080E090E00E94870006C061E571E087E75A
:1012D00091E00E94660662E086E392E00E941505B6
:1012E00067E571E086E392E00E9466060E9449038A
:1012F000909376018093750180911E020E942C03C9
:101300002091240230912502820F931F0296909320
:101310007401809373010E9449039093720180933A
:10132000710180E00E94B80561E671E086E392E019
:101330000E94660681E00E94B80580917501909137
:1013400076010E94570685E00E94B80563E671E0C9
:1013500086E392E00E94660686E00E94B8058091CE
:101360007301909174010E9457068AE00E94B805AB
:1013700065E671E086E392E00E9466068BE00E94DB
:10138000B80580917301909174010E9457060E94E4
:1013900051044B015C0184EFC82EDD24D394E12C71
:1013A000F12C0E945104DC01CB0188199909AA098A
:1013B000BB09883E9340A105B10558F081E0C81AE9
:1013C000D108E108F10828EE820E23E0921EA11C4C
:1013D000B11CC114D104E104F10419F70E946F0299
:1013E00085CF97F99F6780E870E060E008959FEFF0
:1013F00080EC089500240A941616170618060906AC
:10140000089500240A94121613061406050608957A
:10141000092E0394000C11F4882352F0BB0F40F402
:10142000BF2B11F460FF04C06F5F7F4F8F4F9F4F42
:10143000089557FD9058440F551F59F05F3F71F0C4
:101440004795880F97FB991F61F09F3F79F087952B
:101450000895121613061406551FF2CF4695F1DFB4
:1014600008C0161617061806991FF1CF8695710544
:10147000610508940895E894BB2766277727CB0178
:1014800097F90895052E97FB1EF400940E94590ABF
:1014900057FD07D00E94610A07FC03D04EF40C945C
:1014A000590A50954095309521953F4F4F4F5F4FCA
:1014B000089590958095709561957F4F8F4F9F4FC0
:1014C0000895A1E21A2EAA1BBB1BFD010DC0AA1F85
:1014D000BB1FEE1FFF1FA217B307E407F50720F09D
:1014E000A21BB30BE40BF50B661F771F881F991F18
:1014F0001A9469F760957095809590959B01AC0161
:10150000BD01CF010895A29FB001B39FC001A39F69
:10151000700D811D1124911DB29F700D811D11242C
:10152000911D08955058BB27AA270E94AA0A0C941F
:10153000080A0E94FA0938F00E94010A20F039F4E2
:101540009F3F19F426F40C94F7090EF4E095E7FB9D
:101550000C94F109E92F0E94190A58F3BA1762078F
:1015600073078407950720F079F4A6F50C943B0ADD
:101570000EF4E0950B2EBA2FA02D0B01B9019001AE
:101580000C01CA01A0011124FF27591B99F0593FF2
:1015900050F4503E68F11A16F040A22F232F342F3A
:1015A0004427585FF3CF469537952795A795F04088
:1015B0005395C9F77EF41F16BA0B620B730B840B9D
:1015C000BAF09150A1F0FF0FBB1F661F771F881F55
:1015D000C2F70EC0BA0F621F731F841F48F48795AD
:1015E00077956795B795F7959E3F08F0B0CF93959F
:1015F000880F08F09927EE0F9795879508950E9418
:10160000E90B08F481E008950E94180B0C94080A75
:101610000E94010A58F00E94FA0940F029F45F3F45
:1016200029F00C94F10951110C943C0A0C94F7091F
:101630000E94190A68F39923B1F3552391F3951B7E
:10164000550BBB27AA2762177307840738F09F5FE3
:101650005F4F220F331F441FAA1FA9F335D00E2E50
:101660003AF0E0E832D091505040E695001CCAF7BD
:101670002BD0FE2F29D0660F771F881FBB1F261780
:1016800037074807AB07B0E809F0BB0B802DBF0157
:10169000FF2793585F4F3AF09E3F510578F00C9426
:1016A000F1090C943C0A5F3FE4F3983ED4F386952D
:1016B00077956795B795F7959F5FC9F7880F911D47
:1016C0009695879597F90895E1E0660F771F881F33
:1016D000BB1F621773078407BA0720F0621B730BE6
:1016E000840BBA0BEE1F88F7E09508950E947D0BDE
:1016F0006894B1110C943C0A08950E94210A88F064
:101700009F5798F0B92F9927B751B0F0E1F0660FC5
:10171000771F881F991F1AF0BA95C9F714C0B13006
:1017200091F00E943B0AB1E008950C943B0A672FA8
:10173000782F8827B85F39F0B93FCCF38695779535
:101740006795B395D9F73EF490958095709561951E
:101750007F4F8F4F9F4F0895E89409C097FB3EF449
:1017600090958095709561957F4F8F4F9F4F9923EE
:10177000A9F0F92F96E9BB279395F695879577956C
:101780006795B795F111F8CFFAF4BB0F11F460FF2C
:101790001BC06F5F7F4F8F4F9F4F16C0882311F084
:1017A00096E911C0772321F09EE8872F762F05C098
:1017B000662371F096E8862F70E060E02AF09A9533
:1017C000660F771F881FDAF7880F9695879597F928
:1017D0000895990F0008550FAA0BE0E8FEEF1616C2
:1017E0001706E807F907C0F012161306E407F50715
:1017F00098F0621B730B840B950B39F40A2661F089
:10180000232B242B252B21F408950A2609F4A1402B
:10181000A6958FEF811D811D089597FB072E16F465
:10182000009407D077FD09D00E94280C07FC05D052
:101830003EF4909581959F4F0895709561957F4FE7
:1018400008950E94830AB7FF0895821B930B0895A1
:10185000AA1BBB1B51E107C0AA1FBB1FA617B707D6
:1018600010F0A61BB70B881F991F5A95A9F78095F2
:101870009095BC01CD010895EE0FFF1F0590F491E6
:10188000E02D099481E090E0F8940C94470CF894D2
:02189000FFCF88
:101892000100000000FC0179029E014302CF01AD6C
:1018A20001C101000000000C057902CB05CA050D3B
:1018B2000A000A43616C6962726174696E67204D45
:1018C2004D4137333631303131002E000A756E61A9
:1018D200626C6520746F2063616C69627261746509
:1018E200000A444F4E4500544343204661746563E9
:0818F20000580059005A0000E3
:107E0000112484B714BE81FFF0D085E080938100F7
:107E100082E08093C00088E18093C10086E0809377
:107E2000C20080E18093C4008EE0C9D0259A86E02C
:107E300020E33CEF91E0309385002093840096BBD3
:107E4000B09BFECF1D9AA8958150A9F7CC24DD24C4
:107E500088248394B5E0AB2EA1E19A2EF3E0BF2EE7
:107E6000A2D0813461F49FD0082FAFD0023811F036
:107E7000013811F484E001C083E08DD089C08234E0
:107E800011F484E103C0853419F485E0A6D080C0E4
:107E9000853579F488D0E82EFF2485D0082F10E0AE
:107EA000102F00270E291F29000F111F8ED06801E7
:107EB0006FC0863521F484E090D080E0DECF843638
:107EC00009F040C070D06FD0082F6DD080E0C81688
:107ED00080E7D80618F4F601B7BEE895C0E0D1E017
:107EE00062D089930C17E1F7F0E0CF16F0E7DF06D8
:107EF00018F0F601B7BEE89568D007B600FCFDCFD4
:107F0000A601A0E0B1E02C9130E011968C91119780
:107F100090E0982F8827822B932B1296FA010C0160
:107F200087BEE89511244E5F5F4FF1E0A038BF0790
:107F300051F7F601A7BEE89507B600FCFDCF97BE46
:107F4000E89526C08437B1F42ED02DD0F82E2BD052
:107F50003CD0F601EF2C8F010F5F1F4F84911BD097
:107F6000EA94F801C1F70894C11CD11CFA94CF0C13
:107F7000D11C0EC0853739F428D08EE10CD085E9AC
:107F80000AD08FE07ACF813511F488E018D01DD067
:107F900080E101D065CF982F8091C00085FFFCCF94
:107FA0009093C60008958091C00087FFFCCF809118
:107FB000C00084FD01C0A8958091C6000895E0E648
:107FC000F0E098E1908380830895EDDF803219F02E
:107FD00088E0F5DFFFCF84E1DECF1F93182FE3DFCA
:107FE0001150E9F7F2DF1F91089580E0E8DFEE27F6
:047FF000FF270994CA
:027FFE00040479
:0400000300007E007B
:00000001FF
